:100000000C94AF020C94CC020C94CC020C940F050F
:100010000C9496200C94CC020C94CC020C94CC0240
:100020000C94CC020C9426190C94CC020C94541908
:100030000C94CC020C94CC020C94CC020C94CC0208
:100040000C94130C0C94CC020C94A61D0C94F51D6E
:100050000C94CC020C94CC020C94CC020C94CC02E8
:100060000C94CC020C94CC027F0788078B078E0778
:10007000910794079707860A860A860A9D0AB00A9E
:10008000B90AC20ACB0AD40AEB0AF60AFF0A080B1D
:10009000110B200B2F0B3E0B510B600B690B720BDE
:1000A0007B0B860B8F0BC60DA70DBA0E0B0E0B0E1E
:1000B0000B0E2E0EA70DA70DBA0E380EBA0E3D0E62
:1000C000590E670EBA0EBA0EBA0E7E0E920EA60E1C
:1000D000130F6D0FD70F8310D70F83108E10D11011
:1000E0004C1E4F1E521E551E581E5B1E5E1E611E6C
:1000F000641E671E6A1E6D1E291F3F1F2C1F2F1FA7
:10010000321F351F381F3B1F084AD73B3BCE016EBD
:1001100084BCBFFDC12F3D6C74319ABD56833DDA5E
:100120003D00C77F11BED9E4BB4C3E916BAAAABE6D
:10013000000000803F05A84CCDB2D44EB93836A996
:10014000020C50B9918688083CA6AAAA2ABE0000D3
:1001500000803F000D0A4772626C20302E38632009
:100160005B27242720666F722068656C705D0D0A1E
:10017000002424202876696577204772626C2073FA
:10018000657474696E6773290D0A242320287669C3
:100190006577202320706172616D657465727329C3
:1001A0000D0A24472028766965772070617273658F
:1001B00072207374617465290D0A244E20287669B3
:1001C0006577207374617274757020626C6F636BF5
:1001D00073290D0A24783D76616C7565202873615A
:1001E0007665204772626C2073657474696E672946
:1001F0000D0A244E783D6C696E6520287361766522
:10020000207374617274757020626C6F636B290D5A
:100210000A24432028636865636B2067636F646505
:10022000206D6F6465290D0A245820286B696C6C59
:1002300020616C61726D206C6F636B290D0A24481C
:10024000202872756E20686F6D696E672063796310
:100250006C65290D0A7E20286379636C65207374B0
:10026000617274290D0A2120286665656420686F13
:100270006C64290D0A3F202863757272656E7420C4
:10028000737461747573290D0A6374726C2D782010
:10029000287265736574204772626C290D0A005DCF
:1002A0000D0A002C005B4739323A005D0D0A002C24
:1002B0000033303A0032383A0035393A0035383AAE
:1002C0000035373A0035363A0035353A0035343A9C
:1002D000005B47005D0D0A00204600205400204DC1
:1002E0003800204D3900204D3500204D3400204D80
:1002F0003300204D3200204D3100204D300020478A
:10030000393400204739330020473931002047393C
:100310003000204732310020473230002047313949
:1003200000204731380020473137002047005B4725
:100330003830005B4733005B4732005B4731005B7E
:100340004730000D0A003D00244E003E0D0A002CEF
:100350000057506F733A002C002C4D506F733A00C9
:100360003C436865636B003C416C61726D003C48C6
:100370006F6D65003C486F6C64003C52756E003CCC
:100380005175657565003C49646C65005D0D0A003A
:1003900044697361626C656400456E61626C65649A
:1003A0000043617574696F6E3A20556E6C6F636BB4
:1003B000656400272448277C2724582720746F2051
:1003C000756E6C6F636B00526573657420746F207B
:1003D000636F6E74696E7565005B002E204D506F03
:1003E000733F0D0A0041626F727420647572696E0A
:1003F00067206379636C650048617264206C696D85
:10040000697400414C41524D3A20002028646972C1
:10041000656374696F6E206173736520782C206248
:100420006F6F6C290D0A00202864656661756C7415
:1004300020666565642C206D6D2F6D696E290D0A2F
:100440002432333D002028792C20737465702F6D81
:100450006D290D0A24343D002028782C2073746502
:10046000702F6D6D290D0A24313D0024303D000DA3
:100470000A00416C61726D206C6F636B0042757392
:1004800079206F722071756575656400454550521D
:100490004F4D2072656164206661696C2E20557332
:1004A000696E672064656661756C74730056616C73
:1004B0007565203C203320757365630056616C754B
:1004C00065203C20302E300053657474696E6720BF
:1004D00064697361626C656400496E76616C69641D
:1004E0002073746174656D656E74004D6F64616C2A
:1004F0002067726F75702076696F6C6174696F6EBA
:1005000000496E76616C696420726164697573007C
:10051000556E737570706F72746564207374617456
:10052000656D656E740045787065637465642063FD
:100530006F6D6D616E64206C6574746572004261EC
:1005400064206E756D62657220666F726D617400F5
:100550006572726F723A20006F6B0D0A00001124F1
:100560001FBECFEFD8E0DEBFCDBF11E0A0E0B1E00D
:10057000EEEDF1E602C005900D92A430B107D9F777
:1005800026E0A4E0B1E001C01D92A03FB207E1F770
:100590000E94512B0C94ED300C9400002198299A64
:1005A00080914F0183FF09C080916B00826080932E
:1005B0006B0080916800816008C080916B008D7F26
:1005C00080936B00809168008E7F8093680008950F
:1005D0002F923F924F925F926F927F928F929F9253
:1005E000AF92BF92CF92DF92EF92FF920F931F9341
:1005F000CF93DF93CDB7DEB7AC970FB6F894DEBFDD
:100600000FBECDBF382E6D87242E098B1A8B2B8BF6
:100610003C8BFE0131968CE0DF011D928A95E9F753
:1006200030FE10C060912C0170912D0180912E013F
:1006300090912F010E946F2F69837A838B839C8313
:1006400011E001C010E031FE0FC01F5F609130016A
:100650007091310180913201909133010E946F2F8E
:100660006D837E838F83988732FE0FC01F5F6091FA
:1006700034017091350180913601909137010E94CB
:100680006F2F69877A878B879C87F985EA853B85F9
:100690002C854D815E816F81788589819A81AB81BE
:1006A000BC8184179507A607B70710F4DB01CA01C0
:1006B000CF2EDE2EE32EF22EC816D906EA06FB0652
:1006C00010F46C017D01612F70E080E090E00E94E9
:1006D0004B2D0E9441302B013C01C701B6010E9405
:1006E0004B2DA30192010E94A32C4B015C01209190
:1006F0004701309148014091490150914A010E94BF
:10070000A22F20E030E84BE355E40E94A32C0E9486
:10071000822C0E941C2D6DA37EA38FA398A72989EC
:100720003A894B895C89C301B2010E94A22FA501BD
:1007300094010E94A22F9B01AC0160EC71EE84E653
:100740009CE40E94A32C0E946F2F2B013C01683F68
:10075000B4E27B07B1E08B07910518F44B015C0113
:1007600007C038EF832E34E2932EAA24A394B12C31
:1007700010915001117C8091420118272D85211183
:1007800002C081EC1827D701C601B695A7959795A9
:10079000879522273327A901281B390B4A0B5B0BAE
:1007A0002D873E874F87588B80913901A501940191
:1007B000281B31094109510929A33AA34BA35CA382
:1007C0008D859E85AF85B889898F9A8FAB8FBC8FB9
:1007D0008D8B9E8BAF8BB88F20E137E240E050E0ED
:1007E000298B3A8B4B8B5C8B1D8E1E8E1F8E18A215
:1007F00001E0E3B1222011F032E0E32730FE2FC008
:1008000049815A816B817C818D859E85AF85B889B0
:10081000840F951FA61FB71F89A79AA7ABA7BCA7D0
:100820008D879E87AF87B88B181619061A061B0688
:10083000B4F4E1FF03C0612F602704C0932D9E7FB5
:10084000392E612F29A53AA54BA55CA52C193D0988
:100850004E095F092D873E874F87588B01C0612F56
:1008600031FE2CC08D819E81AF81B8852D893E8956
:100870004F89588D820F931FA41FB51F89A79AA770
:10088000ABA7BCA78D8B9E8BAF8BB88F18161906A4
:100890001A061B069CF4E1FF02C0602703C0332D3B
:1008A0003D7F332E89A59AA5ABA5BCA58C199D09C2
:1008B000AE09BF098D8B9E8BAF8BB88F32FE2CC0DB
:1008C00029853A854B855C85898D9A8DAB8DBC8D4C
:1008D000280F391F4A1F5B1F29A73AA74BA75CA700
:1008E000298F3A8F4B8F5C8F12161306140615064C
:1008F000B4F4E1FF02C0602703C0932D9B7F392E23
:1009000029A53AA54BA55CA52C193D094E095F09FF
:10091000298F3A8F4B8F5C8F332009F467C09091F9
:10092000640194FD63C060FD289A60FF289860917F
:10093000390170E080E090E00E94D72515B969A1E7
:100940007AA18BA19CA10E94D725481459046A045E
:100950007B0408F04ECF89899A89AB89BC89880DC0
:10096000991DAA1DBB1D898B9A8BAB8BBC8B8132C9
:100970002EE49207A105B10508F43BCF80529E44B6
:10098000A109B109898B9A8BAB8BBC8B8D8D9E8D08
:10099000AF8DB8A12DA13EA14FA158A5820F931FE5
:1009A000A41FB51F8D8F9E8FAF8FB8A360E077E82F
:1009B00083E993E02D8D3E8D4F8D58A10E94AB3081
:1009C00053014201421653066406750610F44901AC
:1009D0005A0180913901A5019401281B310941096F
:1009E000510929A33AA34BA35CA303CFAC960FB63E
:1009F000F894DEBF0FBECDBFDF91CF911F910F9155
:100A0000FF90EF90DF90CF90BF90AF909F908F902E
:100A10007F906F905F904F903F902F9008951F921E
:100A20000F920FB60F9211242F933F934F935F9322
:100A30006F937F938F939F93AF93BF93EF93FF93A6
:100A400080916301863059F08091640185FD07C073
:100A50000E945A2A80916401806480936401FF910E
:100A6000EF91BF91AF919F918F917F916F915F9126
:100A70004F913F912F910F900FBE0F901F9018959F
:100A80009F92AF92BF92CF92DF92EF92FF920F931D
:100A90001F93CF93DF935B018A017C01E40EF51E67
:100AA000EC01912C6B01C81AD90AEC16FD06A9F0CD
:100AB000C6018C0F9D1F0E948D2B292D30E0211522
:100AC000310531F4220F232F221F330B217001C077
:100AD00021E0982E920E8993E8CFC501800F911FD7
:100AE0000E948D2B21E030E0981611F020E030E0DC
:100AF000C901DF91CF911F910F91FF90EF90DF908F
:100B0000CF90BF90AF909F9008959F92AF92BF9269
:100B1000CF92DF92EF92FF920F931F93CF93DF93C9
:100B20005C01EB017A016B01C40ED51E8C01912C86
:100B3000692DCC15DD05A9F070E06115710531F462
:100B4000660F672F661F770B617001C061E08991A6
:100B5000962E980E682FC8010E94952B0F5F1F4F8D
:100B6000E7CFC5018E0D9F1DDF91CF911F910F9192
:100B7000FF90EF90DF90CF90BF90AF909F900C943C
:100B8000952BCF93DF93CDB7DEB769970FB6F89467
:100B9000DEBF0FBECDBF8CE38AB98FE087B98091ED
:100BA000C0008D7F8093C0001092C50087E68093BF
:100BB000C4008091C10080618093C1008091C10018
:100BC00088608093C1008091C10080688093C100DB
:100BD0000E940F0C853061F446E350E061E070E064
:100BE0008CE291E00E944005892B09F4EFC511C009
:100BF000853008F0EBC543E250E061E070E08CE244
:100C000091E00E944005892B09F4E0C580E00E9434
:100C1000E21C10E0BE016F5F7F4F812F0E94851D97
:100C2000811103C08AE00E943B1E1F5F183091F7BC
:100C300084B1816C84B985B18E7390914201892B06
:100C400085B9259A809181008F7E80938100809163
:100C50008100886080938100809180008D7F8093E7
:100C60008000809180008E7F809380008091800042
:100C70008F7380938000809180008F7C80938000B0
:100C80001092B0001092B10080917000816080934A
:100C900070000E94B71C0E943A19789480E1E2E645
:100CA000F1E0DF011D928A95E9F781E0809362010E
:100CB000809363013324339452E0952E66E0262E10
:100CC00080916201882309F496C08091FC01809391
:100CD000FB018091240680932306809124068F5F78
:100CE000823109F480E080936C068CE1EDE6F6E059
:100CF00011928A95E9F785E3A9E8B6E01D928A95F5
:100D0000E9F780913A0190913B01A0913C01B091AB
:100D10003D018093910690939206A0939306B09321
:100D200094063092A3069092A40630928D0666EA4D
:100D300076E080E00E94851D811103C08AE00E9458
:100D40003B1E109205011092040184E591E00E947F
:100D5000A0232198299A80916C00826080936C0076
:100D60008091680082608093680010922A01209A26
:100D7000209A0E94D31C10922B01209A0E94D31C0F
:100D80000E94CE0284E2E6E0F1E011928A95E9F752
:100D900060E273E080E090E00E94670C109226060B
:100DA00010922506109227060E9473251092620168
:100DB0001092640180914F0181FD309271019091F8
:100DC0006301913019F484FD2092630180916301E5
:100DD000863069F489ED93E00E94A02383EB93E0D1
:100DE0000E94A0238CE893E00E94A02304C01092EC
:100DF00063010E94AF230E94AB1E9091FB01809182
:100E0000FC01891709F45CCFE92FF0E0E558FE4FAB
:100E100080819F5F903819F09093FB0102C010927F
:100E2000FB018F3F09F44CCF8A3019F08D3009F067
:100E3000A4C40E94AB1E8091620181113BCFE0915E
:100E40000501EE2309F48EC4F0E0E254F94F10825C
:100E50008091BE06853419F40C94003C7BC4843226
:100E600009F078C4398A8091BF06833409F483C1BC
:100E70004CF4833201F18432A1F08111D2C281E7B6
:100E800091E076C1883409F4B3C124F4873409F4BD
:100E9000ADC0C7C28E3409F48CC2883509F48FC145
:100EA000C0C2998A8091C006882311F083E060C493
:100EB0000E94761E57C4998A8091C0068111F6CF90
:100EC00010E0BE016F5F7F4F812F0E94851D811151
:100ED00004C08AE00E943B1E45C481ED92E00E945E
:100EE000A023812F90E0FC013197E730F10520F439
:100EF000EC5CFF4F0C94CD308DEC92E002C089EC9D
:100F000092E00E94A023CE0101967C0100E025C062
:100F100085EC92E0F6CF81EC92E0F3CF8DEB92E09E
:100F2000F0CF89EB92E0EDCF85EB92E0EACF81EB59
:100F300092E0E7CFF70160817181828193810E9405
:100F400082220230D1F08FEA92E00E94A0230F5F4C
:100F5000F4E0EF0EF11C033099F080914F0180FF17
:100F6000E9CF2BE832E441E25DE3D7016D917D9159
:100F70008D919C910E94A22FE2CF8BEA92E0E5CF67
:100F80001F5F183009F09DCF85EA92E00E94A023F0
:100F900049E8E42E46E0F42E10E080914F0180FFF6
:100FA0000EC02BE832E441E25DE3D70199966D91E2
:100FB0007D918D919C919C970E94A22F05C0F70175
:100FC00061A572A583A594A50E948222123019F012
:100FD00083EA92E002C08FE992E00E94A0231F5FA3
:100FE000F4E0EF0EF11C1330C1F6BCC3998A809176
:100FF000C00681115BCF80918A06823091F038F46F
:10100000882361F08130A1F48BE393E00FC083303B
:1010100059F0843069F48EE293E008C08FE393E0E6
:1010200005C087E393E002C083E393E00E94A0231E
:101030008BE293E00E94A0236091A50670E06A5CB9
:101040007F4F072E000C880B990B0E942C23809158
:10105000A20681110AC08091A306813019F486E2AC
:1010600093E005C081E293E002C08CE193E00E942E
:10107000A02380918C06882319F087E193E002C0B9
:1010800082E193E00E94A02380918D06882319F0CD
:101090008DE093E002C088E093E00E94A02380915D
:1010A0008B06882319F083E093E002C08EEF92E074
:1010B0000E94A02380918E06813049F028F0823072
:1010C00051F482EF92E005C08AEF92E002C086EF11
:1010D00092E00E94A02380918F06882351F08130F6
:1010E00029F08F3F51F48AEE92E005C08EEE92E037
:1010F00002C086EE92E00E94A02380919006882391
:1011000029F0813039F48EED92E002C082EE92E057
:101110000E94A0238BED92E00E94A0236091A10683
:1011200070E080E090E00E942C2388ED92E00E9425
:10113000A02380918C06882379F02BE832E441E2E9
:101140005DE3609191067091920680919306909173
:1011500094060E94A22F08C0609191067091920699
:1011600080919306909194060E94822284ED92E0F1
:101170000E94A023F7C2998A8091C006811196CE61
:1011800080916301873049F40E945A2A89ED93E0E7
:101190000E94A02380E993E00DC0882311F08BE02A
:1011A000E7C227E02093630189ED93E00E94A0232A
:1011B00089E993E00E94A0238CE893E0D9CF998A33
:1011C0008091C006811172CE80916301863009F052
:1011D000C9C289ED93E00E94A02381EA93E00E94B6
:1011E000A0238CE893E00E94A02310926301BAC26E
:1011F00080914F0184FFA6C280916301882311F082
:10120000863069F685E08093630180916B008D7F65
:1012100080936B000E94B71C0091550110915601FC
:10122000209157013091580140E061E084E00E9434
:10123000E80200915501109156012091570130911B
:10124000580140E061E083E00E94E802809159018A
:1012500090915A010E94152632E0F32EFA940091E3
:10126000510110915201209153013091540141E0FC
:1012700060E087E00E94E8028091590190915A0154
:101280000E94152691E0F91619F0FF20A9F0E6CF8B
:10129000009151011091520120915301309154015C
:1012A00040E061E087E00E94E8028091590190915E
:1012B0005A010E941526D2CF0E943A190E94AB1EF5
:1012C0008091620181114EC2A5E6B1E0ECE01D9271
:1012D000EA95E9F70E94732510926301809150010D
:1012E00086FD02C01FEF01C011E087FD02C00FEFB5
:1012F00001C001E080FD02C06FEF01C061E04090DD
:101300005B0150905C0160905D0170905E01A09067
:101310005501B0905601C0905701D0905801062E4B
:10132000000C770B880B990B0E944D2DA3019201A5
:101330000E94A22F6A8B7B8B8C8B9D8B602F000F62
:10134000770B880B990B0E944D2DA30192010E94EF
:10135000A22F6E8B7F8B888F998F612F110F770B48
:10136000880B990B0E944D2DA30192010E94A22F80
:10137000812CEA88FB880C891D892E893F89488D3C
:10138000598D0E9420260E945D0C0E94DF230E943E
:10139000732580914F0183FF05C080916B008260AF
:1013A00080936B00809162018111DCC10E94AF23A8
:1013B000D9C1998A8091C006811135C0C12CD12C28
:1013C00076018C2D0E94EF0B811104C08AE00E94EF
:1013D0003B1E1AC088E493E00E94A023C701B60117
:1013E0000E942C2386E493E00E94A0230EEB16E0DB
:1013F000D8018D918D01882319F00E941F1EF8CF0E
:1014000083E493E00E94A023BFEFCB1ADB0AEB0A30
:10141000FB0AE2E0CE16D104E104F10409F4A2C112
:10142000D0CF10E001C011E0BE01635F7F4FCE015D
:1014300041960E94742A892B11F481E099C1E989AF
:1014400081E08E0F898BF0E0E254F94F90819D335B
:1014500009F02CCD112381F1482F50E0282F30E0E6
:10146000D901A254B94F9C91241B350BF901E254C8
:10147000F94F90838F5F9C919111F0CF898B809170
:101480006301863009F473C10E94C40C811168C1E4
:101490006D857E858F8598890E9485300E941C2DE0
:1014A000F3E36F9FC001112442E350E06EEB76E05E
:1014B0009D5F0E94850556C1BE016F5F7F4FCE01C3
:1014C00041960E94742A892B09F4B7CFE989F0E08C
:1014D000E254F94F80818111E9CCC980DA80EB8038
:1014E000FC806D857E858F8598890E94152D2B0146
:1014F0003C01CB01770FAA0BBB0B8831910508F09B
:1015000023C1FC01E55CFF4F0C94CD3020E030E0BE
:10151000A901C701B6010E94992C18160CF016C13A
:10152000C201880F991F880F991FFC01E45DFE4FCF
:10153000C082D182E282F38202C120E030E040E446
:1015400050E4C701B6010E94992C87FD01C1C70173
:10155000B6010E940F300E941C2D60933901EFC02C
:10156000C0923A01D0923B01E0923C01F0923D01E1
:10157000E6C0C0923E01D0923F01E0924001F0925D
:101580004101DDC0C701B6010E9485300E941C2DBB
:1015900060934201D4C0C701B6010E940F300E947F
:1015A0001C2D60935F01CBC020E030E040E752E4A7
:1015B000C701B6010E94A22F20E030E040E752E4CC
:1015C0000E94A22F609347017093480180934901C4
:1015D00090934A01B4C0E894F7F8C0924B01D092BE
:1015E0004C01E0924D01F0924E01A9C0C09243011E
:1015F000D0924401E0924501F0924601A0C0C7019B
:10160000B6010E940F300E941C2D6093610197C0AB
:10161000C701B6010E940F300E941C2D609360012B
:101620008EC020E030E0A901C701B6010E94992CCC
:1016300090914F01882311F091607FC09E7F7DC003
:1016400020E030E0A901C701B6010E94992C9091D9
:101650004F01882311F0926070C09D7F6EC020E022
:1016600030E0A901C701B6010E94992C90914F0169
:10167000882311F0946061C09B7F5FC020E030E060
:10168000A901C701B6010E94992C90914F018823AE
:1016900011F0986001C0977F90934F010E94CE0295
:1016A0004EC020E030E0A901C701B6010E94992C8C
:1016B00090914F01882311F090613FC09F7E3DC003
:1016C000C701B6010E9485300E941C2D6093500115
:1016D00036C0C0925101D0925201E0925301F09273
:1016E00054012DC0C0925501D0925601E09257018D
:1016F000F092580124C0C701B6010E940F300E9429
:101700001C2D70935A016093590119C0C0925B015E
:10171000D0925C01E0925D01F0925E0110C020E089
:1017200030E0A901C701B6010E94992C90914F01A8
:10173000882311F0906201C09F7D90934F010E9419
:10174000D51C10C087E014C086E012C088E010C02D
:1017500089E00EC080916301863049F00E94C40C7C
:10176000811106C088E595E00E94A02303C08CE0AB
:101770000E943B1E1092050107C09091040199231D
:1017800031F0893209F039CB1092040136CB813225
:1017900008F433CB8F3209F430CB883219F430920D
:1017A00004012BCB20910501213308F026CB41E029
:1017B000420F30E09FE9980F40930501F901E25490
:1017C000F94F9A3108F48052808317CB8AE00E9447
:1017D0003B1E81E00E94E21C0E94761E1ACACF9333
:1017E000DF9323E3829FC0011124EC01DD5F42E31C
:1017F00050E0BE018EEB96E00E944005892B59F423
:101800001092BE0642E350E06EEB76E0CE010E94FD
:10181000850580E001C081E0DF91CF91089580E0EF
:1018200090E00C948D2B1F920F920FB60F92112403
:101830002F933F938F939F93AF93BF9380917701A3
:1018400090917801A0917901B0917A01309176015F
:1018500023E0230F2D3720F40196A11DB11D05C0F3
:1018600026E8230F0296A11DB11D209376018093D7
:10187000770190937801A0937901B0937A018091D8
:10188000720190917301A0917401B091750101965C
:10189000A11DB11D8093720190937301A0937401F7
:1018A000B0937501BF91AF919F918F913F912F910F
:1018B0000F900FBE0F901F9018958091630182309A
:1018C00029F483E0809363010C94B71C08959B0175
:1018D000AC01203283E038074105510520F420E2B5
:1018E00033E040E050E060E070E788E399E30E9475
:1018F000AB302115310581E04807510518F4B901D5
:1019000081E02FC02115310588E048075105A8F472
:10191000DA01C901F3E0B695A79597958795FA95F1
:10192000D1F7BC019C01AD01A3E0220F331F441F7E
:10193000551FAA95D1F782E014C0DA01C90126E04B
:10194000B695A795979587952A95D1F7BC019C01E7
:10195000AD01E6E0220F331F441F551FEA95D1F772
:1019600083E090918100987F892B80938100709310
:1019700089006093880020931A0130931B014093E3
:101980001C0150931D0108952F923F924F925F9238
:101990006F927F928F929F92AF92BF92CF92DF927F
:1019A000EF92FF920F931F93CF93DF93CDB7DEB7E4
:1019B000CB55D1090FB6F894DEBF0FBECDBF1AA626
:1019C000FE0179968CE0DF01282F1D922A95E9F718
:1019D0003C97DF011D928A95E9F7109289061BA6B4
:1019E000912C212C312CCC24C394D12C15E0B12E78
:1019F00001E082E0F82E93E0E92E24E0A22EAE0171
:101A0000465D5F4FBE016B5D7F4FCE0189960E94A0
:101A10002A2B892B09F482C04DA05EA06FA078A468
:101A2000C301B2010E9485300E94152DCB0129A56A
:101A3000273421F02D3409F45BC0E1CF6E317105FC
:101A400011F40C944C161CF564317105B4F4613139
:101A5000710514F00C945B176430710511F40C944B
:101A60004C1624F477FF38C00C9437166A30710591
:101A700011F40C944C160C9437166631710594F1E0
:101A80006C31710511F00C9437160C944C166C35B2
:101A90007105ACF46A35710514F56C33710554F4B5
:101AA0006633710514F56533710511F40C944C1609
:101AB0000C9437166035710579F00C9437166C3537
:101AC000710511F40C944C166F35710514F00C94DB
:101AD000371616E00C944D1612E00C944D1614E0D7
:101AE0000C944D1617E00C944D1619E00C944D16FD
:101AF000663071054CF4633071056CF477FF02C0F9
:101B00000C94E4170C94AA176E31710511F40C941F
:101B1000AA170C94E41718E00C94AB17809189066F
:101B200081110C9416181AA600E01CA61DA61EA66C
:101B30001FA6412C512C320118AE19AE40E84AAF15
:101B40005FEB5BAF10E0F3E0AF2EA6E08A2EAE01B4
:101B5000465D5F4FBE016B5D7F4FCE0189960E944F
:101B60002A2B892B09F409C1E9A48E2D0E2C000C17
:101B7000990BAA0BBB0BFC01E654F109E531F10509
:101B800008F0F8C0ED5AFF4F0C94CD30BDA0CEA0A8
:101B9000EFA0F8A420E030E0A9016B2D7C2DC70157
:101BA0000E94992C181614F08092890690918B0649
:101BB00080918C069923A9F0811105C0B8AEC9AEF9
:101BC000EAAEFBAEC4CF23E333E34BEC51E46B2D21
:101BD0007C2DC7010E94A22F68AF79AF8AAF9BAF5F
:101BE000B6CF882351F023E333E34BEC51E46B2D64
:101BF0007C2DC7010E94A22F03C06B2D7C2DC70135
:101C00006B017C01C0929106D0929206E0929306FD
:101C1000F09294069CCF0E2C000CFF0889E4E81A81
:101C2000F1086DA17EA18FA198A520918C06222399
:101C300031F023E333E34BEC51E40E94A22FEE0C8E
:101C4000FF1CEE0CFF1CE1E0F0E0EC0FFD1FEE0DC1
:101C5000FF1D648775878687978779CF6DA17EA1E1
:101C60008FA198A50E9485300E941C2D062F6FCF52
:101C70004DA05EA06FA078A46ACF2DA13EA14FA178
:101C800058A52CA73DA74EA75FA780918C06882357
:101C900009F45DCF23E333E34BEC51E46CA57DA560
:101CA0008EA59FA50E94A22F6CA77DA78EA79FA798
:101CB0004ECF20E030E0A9016DA17EA18FA198A5B3
:101CC0000E94992C87FF43CF8092890640CFCDA0F8
:101CD000DEA0EFA0F8A420E030E0A901C701B60122
:101CE0000E94992C87FD80928906C701B6010E9447
:101CF00085300E941C2D6093A10629CF6DA17EA185
:101D00008FA198A520918C06222331F023E333E3A1
:101D10004BEC51E40E94A22F698F7A8F8B8F9C8F9E
:101D2000116015CF6DA17EA18FA198A520918C0681
:101D3000222331F023E333E34BEC51E40E94A22F42
:101D40006D8F7E8F8F8F98A3126001CF6DA17EA1C2
:101D50008FA198A520918C06222331F023E333E351
:101D60004BEC51E40E94A22F69A37AA38BA39CA3FE
:101D70001460EDCEA0928906EACE80918906811189
:101D80000C94161880916301873059F1F0908F06FA
:101D90002F2D0F2C000C330B80912A0190E0281777
:101DA000390771F00E94DF23FF2031F014F02898EA
:101DB00001C0289A289A02C00E94D31CF0922A01DE
:101DC000F090900680912B01F81659F00E94DF23C5
:101DD00031E0F31202C0289A02C00E94D31CF09294
:101DE0002B0131FE13C0BE016F5F7F4F8091A506AE
:101DF0000E94851D882309F4DCC18CE0FE01319628
:101E0000A6EAB6E001900D928A95E1F74BA5842FE2
:101E100090E0FC013197E830F10508F0CCC1E859B9
:101E2000FF4F0C94CD3020E030E0A901C301B20196
:101E30000E94992C87FF04C086E080938906BBC16D
:101E400080916301873009F4B6C120E030E040EAB8
:101E500051E4C301B2010E94A22F0E94882D0E946A
:101E60001C2D6B017C010E94DF2320E030E04AE75B
:101E700054E4C301B2010E94A22F2B013C0182E372
:101E80008C9DB0018D9D700D112480E090E00E942A
:101E90004B2D9B01AC01C301B2010E94A32B0E94F8
:101EA000882D0E941C2DCB010E941526C114D1043F
:101EB00009F481C10E94AB1E51E0C51AD10880917E
:101EC0006201811178C18FEF90E7A2E081509040CC
:101ED000A040E1F700C00000E9CFC301B2010E94B9
:101EE0008530023011F0043151F40E94152D7B0130
:101EF000B1E0EB1AF108E6E0EE16F10410F083E031
:101F000005C0111106C0023021F486E080938906D5
:101F1000F8C0043181F465E976E08E2D0E947C1DC5
:101F20008091A50690E0E816F90609F0EAC08CE079
:101F3000E5E9F6E039C0BE016F5F7F4F8E2D0E944C
:101F4000851D882309F435C1DE015996FE013196BD
:101F500080E090E0212F30E0A901082E02C05595C5
:101F600047950A94E2F740FF09C04D915D916D914C
:101F70007C911397408351836283738301961496F7
:101F800034968330910541F7BE016F5F7F4F8E2DF0
:101F90000E947C1D8091A50690E0E816F90609F0E4
:101FA000B0C08CE0FE013196A6EAB6E0A6C01123CF
:101FB00009F479C080908D067E01F9E1EF0EF11CE5
:101FC00069E8C62E66E0D62EA12CB12C012F10E0B8
:101FD000C8010A2C02C0959587950A94E2F780FF04
:101FE00033C08820F9F0D60199962D913D914D91FD
:101FF0005C919C975D966D917D918D919C91909750
:102000000E94A42B9B01AC01F70160817181828148
:1020100093810E94A42BD7016D937D938D939C9304
:1020200013971CC0F6012485358546855785D70151
:102030006D917D918D919C910E94A42BF7016083FD
:102040007183828393830AC0F60184859585A68572
:10205000B785F70180839183A283B383FFEFAF1A23
:10206000BF0A24E0E20EF11C34E0C30ED11C43E0B1
:10207000A416B10409F0ACCFA0903E01B0903F018E
:10208000C0904001D0904101E9A0FAA00BA11CA191
:102090002D8D3E8D4F8D58A1698D7A8D8B8D9C8DA8
:1020A000812C0E9420265BA5553011F086E001C0EE
:1020B00087E0BE016F5F7F4F0E94851D882309F472
:1020C00078C0A0903E01B0903F01C0904001D090F8
:1020D0004101E984FA840B851C852D813E814F8165
:1020E000588569817A818B819C81812C0E94202670
:1020F0008CE0FE013196A5E9B6E001900D928A953B
:10210000E1F710E058C08BA5863011F086E001C0E1
:1021100087E065E976E00E947C1D4DC0112309F43B
:10212000F4CE59E8E52E56E0F52E5E0199E1A90EB0
:10213000B11CC12CD12C012F10E0C8010C2C02C005
:10214000959587950A94E2F780FF1DC0D7015D96AB
:102150002D913D914D915C9190971C966D917D9143
:102160008D919C911F970E94A32BF50120813181B5
:10217000428153810E94A32BD70199966D937D9341
:102180008D939C939C97BFEFCB1ADB0AE4E0EE0E95
:10219000F11CF4E0AF0EB11C23E0C216D10469F6C5
:1021A000B0CF8CE0E2EBF6E0DF011D928A95E9F713
:1021B00002C08AE03BC722FC03C0112309F441C5D9
:1021C000B0918B06BBA7BB23D1F020E030E0A90182
:1021D00068AD79AD8AAD9BAD0E94992C87FF0FC089
:1021E00080918A06843071F086E080938906992078
:1021F00009F43BC580918A06823030F408C0911002
:10220000F9CF05C0992019F086E080938906809166
:10221000890681110BC700918D067E01E9E1EE0E62
:10222000F11C49E8C42E46E0D42EA12CB12C612E1D
:10223000712CC3010A2C02C0959587950A94E2F788
:1022400080FF35C091103DC00023F9F0D60199966A
:102250002D913D914D915C919C975D966D917D91F5
:102260008D919C9190970E94A42B9B01AC01F7014A
:1022700060817181828193810E94A42BD7016D932B
:102280007D938D939C9313971CC0F601248535850F
:1022900046855785D7016D917D918D919C910E94C6
:1022A000A42BF70160837183828393830AC0F601B4
:1022B00084859585A685B785F70180839183A28360
:1022C000B383FFEFAF1ABF0A24E0E20EF11C34E043
:1022D000C30ED11C43E0A416B10409F0AACF50915B
:1022E0008A065CAB543040F4523008F04CC05523A1
:1022F00071F0513021F198C48CA9843009F094C454
:10230000112309F491C486E0809389068DC41123BA
:10231000D1F3A0903E01B0903F01C0904001D09019
:102320004101E9A0FAA00BA11CA12D8D3E8D4F8D7E
:1023300058A1698D7A8D8B8D9C8D812C73C411234E
:1023400011F39BA5911109C0B0919106A09192063D
:10235000F0919306E091940604C0B8ADA9ADFAAD32
:10236000EBADE9A0FAA00BA11CA12D8D3E8D4F8DE8
:1023700058A1698D7A8D8B8D9C8D8BA4AB2EBA2E36
:10238000CF2EDE2E4FC4A091A406A8ABEA2FF0E01A
:102390006096FFAFEEAF609781E090E001C0880FDC
:1023A000AA95EAF78095182309F4ADCF20E030E034
:1023B000A9016CA57DA58EA59FA50E94992C909141
:1023C000A20681112EC0E1E0F0E0EC0FFD1F24E039
:1023D000929FE00DF11D1124C484D584E684F78416
:1023E00020E030E0A901C701B6010E94992C1091AC
:1023F000A306811100C120E030E0A901E1E0F0E096
:10240000EC0FFD1F84E0189FE00DF11D1124648581
:102410007585868597850E94992C882309F473CF4A
:10242000EAC0892F90E08C01000F111F000F111FCF
:10243000A1E0B0E0AC0FBD1FA00FB11FF801EB563B
:10244000F94F208131814281538158966D917D9160
:102450008D919C915B970E94A32B4B015C01809115
:10246000A30690E01C01220C331C220C331CE1E07B
:10247000F0E0EC0FFD1FE20DF31DD101AB56B94F9B
:102480002D913D914D915C91608D718D828D938DDB
:102490000E94A32B2B013C01FE013D968CE0DF0145
:1024A0001D928A95E9F720E030E040E850E46CA501
:1024B0007DA58EA59FA50E94A22F2CA53DA54EA56A
:1024C0005FA50E94A22F6B017C01A5019401C501AB
:1024D000B4010E94A22F9B01AC01C701B6010E946A
:1024E000A32B6B017C01A3019201C301B2010E94E5
:1024F000A22F9B01AC01C701B6010E94A32B6B0167
:102500007C0120E030E0A9010E94992C87FF04C0E3
:1025100084E0809389068AC5C701B6010E944130D4
:102520006B017C01A3019201C501B4010E94CE2E72
:102530009B01AC01C701B60190580E94A32C6B010E
:102540007C01BCA9B33021F4F7FAF094F7F8F094C9
:1025500020E030E0A9016CA57DA58EA59FA50E9475
:10256000992C87FF0DC0F7FAF094F7F8F0942CA59A
:102570003DA54EA55FA550582CA73DA74EA75FA728
:1025800041E050E04C0F5D1F040F151FA70196019D
:10259000C301B2010E94A22F9B01AC01C501B4018D
:1025A0000E94A32B20E030E040E05FE30E94A22FD6
:1025B000D8011C966D937D938D939C931F9701E09A
:1025C00010E00C0F1D1F020D131DA7019601C50180
:1025D000B4010E94A22FA30192010E94A42B20E02B
:1025E00030E040E05FE30E94A22FF8016487758726
:1025F0008687978715C0E1E0F0E0EC0FFD1F24E02F
:10260000129FE00DF11D11242485358546855785DF
:10261000C701B6010E94CE2E6CA77DA78EA79FA7EB
:102620003BA531110CC04091910648AF50919206E4
:1026300059AF809193068AAF909194069BAFA09179
:10264000A306ACAFB091A2062196BFAF2197E4E0FC
:10265000BE9F800111242DE030E02C0F3D1F200F84
:10266000311F62963FAF2EAF6297D9018D909D903A
:10267000AD90BC90F801EB56F94F20813181428139
:102680005381C501B4010E94A42B66966CAF7DAF47
:102690008EAF9FAF6697ECADB4E0EB9F10011124B5
:1026A0002DE030E02C0F3D1F220D331D68963FAF0B
:1026B0002EAF6897D901CD90DD90ED90FC90F1019F
:1026C000EB56F94F2081318142815381C701B60118
:1026D0000E94A42B6C966CAF7DAF8EAF9FAF6C97B2
:1026E000E8A9B4E0EB9FC0011124FC01EB56F94FBF
:1026F00020813181428153812A962CAF3DAF4EAF6C
:102700005FAF2A97E9E1F0E0EC0FFD1FE80FF91F3A
:1027100060817181828193810E94A32B2E966CAF80
:102720007DAF8EAF9FAF2E972401350177FA70945D
:1027300077F87094D701C601B05888AB99ABAAABB3
:10274000BBABE9E1F0E0EC0FFD1FE00FF11F669677
:102750002CAD3DAD4EAD5FAD6697608171818281DC
:1027600093810E94A32B6B017C01E9E1F0E0EC0F67
:10277000FD1FE20DF31D6C962CAD3DAD4EAD5FAD72
:102780006C9760817181828193810E94A32B4B01A0
:102790005C01A7019601C301B2010E94A22F2696F7
:1027A0006CAF7DAF8EAF9FAF2697A501940168A94E
:1027B00079A98AA99BA90E94A22F9B01AC01269608
:1027C0006CAD7DAD8EAD9FAD26970E94A42B269655
:1027D0006CAF7DAF8EAF9FAF2697A5019401C3016B
:1027E000B2010E94A22F4B015C01A701960168A9CA
:1027F00079A98AA99BA90E94A22F9B01AC01C501BE
:10280000B4010E94A32B26962CAD3DAD4EAD5FAD1D
:1028100026970E94232C6B017C019CA920E030E0CC
:10282000A901923079F4C701B6010E94BB2E87FD41
:1028300019C02BED3FE049EC50E4C701B6010E94FE
:10284000A32B0EC0C701B6010E94992C181654F094
:102850002BED3FE049EC50E4C701B6010E94A42BE8
:102860006B017C01A70196016CA57DA58EA59FA596
:102870000E94A22F2E962CAD3DAD4EAD5FAD2E9792
:102880005F770E94CE2E4B015C0120E030E0A90171
:102890000E94992C882309F4C7C1209143013091EB
:1028A00044014091450150914601C501B4010E9487
:1028B000A32C0E94882D0E941C2D24967FAF6EAF02
:1028C00024974B01A12CB12CABA5AA2381F0C50103
:1028D000B4010E944B2D9B01AC0168AD79AD8AAD6E
:1028E0009BAD0E94A22F68AF79AF8AAF9BAFC501A5
:1028F000B4010E944B2D4B015C019B01AC01C7014F
:10290000B6010E94A32C6CA77DA78EA79FA7A50147
:1029100094012E966CAD7DAD8EAD9FAD2E970E942D
:10292000A32C2E966CAF7DAF8EAF9FAF2E9720E07D
:1029300030E040E05FE36CA57DA58EA59FA50E94D9
:10294000A22F2CA53DA54EA55FA50E94A22F9B01FD
:10295000AC0160E070E080E89FE30E94A32B6CABC9
:102960007DAB8EAB9FAB6096EEADFFAD6097EE0F8B
:10297000FF1FEE0FFF1F21E030E02C0F3D1FE20F85
:10298000F31F2A968CAD9DADAEADBFAD2A97808367
:102990009183A283B383912C22242394312CD901D7
:1029A00021963FAD219724E0329FA00DB11D112447
:1029B0002896BFAFAEAF289741E050E04C0F5D1FA7
:1029C0009CAD84E0989F400D511D112460965FAF2F
:1029D0004EAF60972296FFAFEEAF22972496AEAD32
:1029E000BFAD24972A163B0608F00BC18091610108
:1029F00090E0292D092C000C330B28173907F4F52A
:102A000028A939A94AA95BA96CA97DA98EA99FA962
:102A10000E94A22F6B017C01A30192016CA57DA5F0
:102A20008EA59FA50E94A22FA70196010E94A42B0C
:102A30005B018C01A30192016CA97DA98EA99FA9BC
:102A40000E94A22F6B017C0128A939A94AA95BA980
:102A50006CA57DA58EA59FA50E94A22F9B01AC0110
:102A6000C701B6010E94A32B2B013C019394650181
:102A70007801C8AAD9AAEAAAFBAA68C0B10180E075
:102A800090E00E944B2D2CA53DA54EA55FA50E9470
:102A9000A22F6B017C010E949E2C68AB79AB8AABA4
:102AA0009BABC701B6010E9433304B015C016296BB
:102AB000EEADFFAD6297C080D180E280F380F7FA7F
:102AC000F094F7F8F0946896AEADBFAD68972D918D
:102AD0003D914D915C912CAF3DAF4EAF5FAFA701E3
:102AE000960168A979A98AA99BA90E94A22F2B0106
:102AF0003C012CAD3DAD4EAD5FADC501B4010E94B2
:102B0000A22F9B01AC01C301B2010E94A42B2B0197
:102B10003C01A7019601C501B4010E94A22F6B01DF
:102B20007C012CAD3DAD4EAD5FAD68A979A98AA9F8
:102B30009BA90E94A22F9B01AC01C701B6010E9474
:102B4000A32B68AB79AB8AAB9BAB912CA301920111
:102B500066966CAD7DAD8EAD9FAD66970E94A42B41
:102B60002896EEADFFAD28976083718382839383AF
:102B700028A939A94AA95BA96C966CAD7DAD8EAD2B
:102B80009FAD6C970E94A42B6096AEADBFAD6097D1
:102B90006D937D938D939C9313972E962CAD3DADA5
:102BA0004EAD5FAD2E972296EEADFFAD22976081C0
:102BB0007181828193810E94A42B2296AEADBFAD1C
:102BC00022976D937D938D939C931397E984FA8458
:102BD0000B851C852D813E814F81588569817A81C5
:102BE0008B819C818BA4A8ACB9ACCAACDBAC0E9435
:102BF000202680916201811117C0BFEF2B1A3B0A7A
:102C0000EDCEE9A0FAA00BA11CA12D8D3E8D4F8D1C
:102C100058A1698D7A8D8B8D9C8D8BA4A8ACB9AC95
:102C2000CAACDBAC0E942026809189068111FEC1CE
:102C30008CE0FE017996A5E9B6E001900D928A95A7
:102C4000E1F780918E06882369F00E94DF231092BD
:102C5000710180918E06823019F40E945A2A02C0B6
:102C600010928E0680918906E1C186E0DFC1853130
:102C70009105E9F510E010928C060AC082309105AA
:102C80000CF055C0892B09F04EC010E010928A0656
:102C900011111AC00C94FF0C11E08531910559F304
:102CA0000CF028C18430910509F451C10CF405C120
:102CB0008231910509F44CC00CF014C18A309105A1
:102CC00009F00CC132E03BA7C60102C0880F991F72
:102CD0001A95E2F79C0122213321232B21F0B09297
:102CE00089060C94FF0C282A392A0C94FF0C863193
:102CF00091050CF059C08430910509F4D8C024F531
:102D00008130910509F0BACF10E000938A06C0CF58
:102D1000863391050CF084C08C31910509F456C0BE
:102D20004E9709F453C010E0E0928906B1CF82308B
:102D3000910521F410E0F0928A06AACF039799F743
:102D400010E0E0928A06A4CF8231910541F410E0B0
:102D50001092A206F092A3060093A40699CF8331A5
:102D600091058CF48A30910521F4B2E0BBA70C9454
:102D7000FF0C4197C1F610E01092A2060093A30643
:102D8000F092A40685CF8331910541F410E00093C1
:102D9000A206F092A3061092A4067ACF449719F6E1
:102DA00010E000938C0674CF8035910521F410E07B
:102DB000A0928A066DCF81359105D4F585339105B2
:102DC00009F0A6CF10E09924939462CF10E020E0A0
:102DD00030E040E251E4C301B2010E94A22F0E9400
:102DE00085300E94152D6931E1E07E07B1F03CF499
:102DF0006831714009F098CF53E05BA749CF6C323E
:102E000031E0730739F06D32714009F08DCF96E0F3
:102E10009BA73ECF85E08BA73BCFF4E0FBA738CF45
:102E2000CC970CF080CF10E066536093A50630CFAE
:102E30008C359105D9F410E020E030E040E251E417
:102E4000C301B2010E94A22F0E9485300E94152D5D
:102E50006839A3E07A0739F06939734009F064CF23
:102E600028E02BA715CFE7E0EBA712CF8D35910512
:102E70007CF48A35910521F410E000938D0608CF8B
:102E80008B35910509F04FCF10E010928D0600CFE1
:102E90008D35910521F410E000938B06F9CE8E3527
:102EA000910509F040CF10E010928B06F1CEE1E0E1
:102EB000EBA70C94FF0C13E0F0CE8130910509F4E0
:102EC00024CF24F4892B09F4E1CE2ECF8230910552
:102ED00009F431CF039709F434CF26CF419709F491
:102EE0004BCF22CF8331910509F451CF449709F498
:102EF00058CF1ACF8035910509F45ACF8CF4853319
:102F0000910509F460CF44F48C31910509F45FCF49
:102F10004E9709F45CCF08CFCC970CF485CF04CF43
:102F20008C35910509F488CF4CF48A35910509F464
:102F3000A4CF8B35910509F4A8CFF6CE8D35910538
:102F400009F4AACF8E35910509F4AECFEDCEF1E0AC
:102F5000FBA7BACE15E08430910521F48FEF809362
:102F60008F0696CE85309105BCF48130910509F429
:102F7000ABCE34F4892B09F0D7CE00938E0688CEE1
:102F80008230910519F4F0928E0682CE039709F0F3
:102F9000CBCE00938F067CCE8830910519F4009338
:102FA000900676CE8930910534F4059709F0BCCEB1
:102FB00010928F066DCE8930910519F4109290060B
:102FC00067CE4E9701F3B0CE8430910511F410E036
:102FD000C5CF85309105ACF48130910511F40C9486
:102FE000FF0C2CF4892B09F09ECE10E0C6CF823066
:102FF000910511F410E0C7CF039709F094CE10E0CB
:10300000C8CF8830910511F410E0C9CF89309105FF
:103010002CF4059709F087CE10E0CACF89309105CE
:1030200011F410E0CBCF4E9729F37DCEC55ADF4F78
:103030000FB6F894DEBF0FBECDBFDF91CF911F91C9
:103040000F91FF90EF90DF90CF90BF90AF909F9047
:103050008F907F906F905F904F903F902F9008954A
:1030600040911E0150911F0160912001709121013A
:1030700080911A0190911B01A0911C01B0911D013A
:10308000840F951FA61FB71F813022EE920724E000
:10309000A207B10550F480931E0190931F01A093E5
:1030A0002001B093210180E00895925EA440B1090F
:1030B00080931E0190931F01A0932001B0932101E2
:1030C00081E008958091650190916601A09167016A
:1030D000B09168010196A11DB11D80936501909387
:1030E0006601A0936701B0936801809100019091FF
:1030F000010101968930910514F081E090E09093F0
:1031000001018093000180910001909101010197DC
:1031100011F480E28BB98091000190910101029736
:1031200011F480E38BB98091000190910101039724
:1031300011F480E18BB98091000190910101049715
:1031400011F488E18BB980910001909101010597FC
:1031500011F488E08BB980910001909101010697EC
:1031600011F48CE08BB980910001909101010797D7
:1031700011F484E08BB980910001909101010897CE
:1031800011F484E28BB908958091650190916601F4
:10319000A0916701B09168010197A109B1098093DD
:1031A000650190936601A0936701B09368018091D7
:1031B00000019091010101971816190614F088E09A
:1031C00090E0909301018093000180910001909123
:1031D0000101019711F480E28BB980910001909177
:1031E0000101029711F480E38BB980910001909165
:1031F0000101039711F480E18BB980910001909156
:103200000101049711F488E18BB98091000190913C
:103210000101059711F488E08BB98091000190912C
:103220000101069711F48CE08BB980910001909117
:103230000101079711F484E08BB98091000190910E
:103240000101089711F484E28BB908951F920F923F
:103250000FB60F9211248F938091420180FD289A1E
:1032600080FF28981092B1008F910F900FBE0F90A1
:103270001F90189580916F008D7F80936F008091D3
:103280005F018F3F21F49091640195FF089590E0D4
:103290000E9415261BB818B880914F0182FF02C00A
:1032A0002D9808952D9A08951F920F920FB60F92A0
:1032B00011240F931F932F933F934F935F936F931B
:1032C0007F938F939F93AF93BF93CF93DF93EF93AE
:1032D000FF9380912706811135C385B190916B06CC
:1032E000917C8E73892B85B985B18E7F90916B0609
:1032F000892B85B980916A068093B20082E0809321
:10330000B10081E0809327067894C0912506D09182
:103310002606209709F08AC0909124068091230602
:10332000981741F0C09123068BE3C89FE001112458
:10333000C350DE4FD0932606C0932506209709F48C
:103340006EC0809163018330D1F46BA17CA18DA10B
:103350009EA1609322017093230180932401909396
:1033600025010E94670C80E091E7A2E0B0E0809325
:103370001E0190931F01A0932001B09321018BA502
:103380009CA5ADA5BEA5AC01BD01759567955795EA
:103390004795840F951FA61FB71F80932601909312
:1033A0002701A0932801B09329014D855E856F8583
:1033B0007889DB01CA01B595A79597958795B09552
:1033C000A095909581959F4FAF4FBF4F8093060179
:1033D00090930701A0930801B093090180930A011B
:1033E00090930B01A0930C01B0930D0180930E01FB
:1033F00090930F01A0931001B0931101409312011B
:1034000050931301609314017093150110921601EB
:1034100010921701109218011092190107C00E9412
:103420003A1980916401846080936401C0912506FB
:10343000D0912606209709F47CC2288120936B0640
:1034400040910601509107016091080170910901B6
:1034500089819A81AB81BC81840F951FA61FB71FFC
:103460008093060190930701A0930801B09309018E
:10347000181619061A061B062CF5322F31603093E8
:103480006B064091120150911301609114017091EB
:103490001501841B950BA60BB70B80930601909327
:1034A0000701A0930801B093090180914F0126FF05
:1034B00005C085FF05C00E94621804C085FFFBCFD0
:1034C0000E94C41840910A0150910B0160910C01B7
:1034D00070910D018D819E81AF81B885840F951FFC
:1034E000A61FB71F80930A0190930B01A0930C01B4
:1034F000B0930D01181619061A061B060CF090C0A1
:1035000020916B06216020936B064091120150912F
:1035100013016091140170911501841B950BA60B8A
:10352000B70B80930A0190930B01A0930C01B09309
:103530000D014091690150916A0160916B01709198
:103540006C01809102019091030127FF13C041504B
:103550005109610971094093690150936A016093AF
:103560006B0170936C01019718161906ACF088E096
:1035700090E012C04F5F5F4F6F4F7F4F40936901E4
:1035800050936A0160936B0170936C0101968930CE
:10359000910514F081E090E0909303018093020183
:1035A0008091020190910301019711F488E088B99C
:1035B0008091020190910301029711F48CE088B987
:1035C0008091020190910301039711F484E088B97E
:1035D0008091020190910301049711F486E088B96B
:1035E0008091020190910301059711F482E088B95E
:1035F0008091020190910301069711F483E088B94C
:103600008091020190910301079711F481E088B93C
:103610008091020190910301089711F489E088B923
:10362000C0912506D091260640910E0150910F01C0
:10363000609110017091110189859A85AB85BC85D7
:10364000840F951FA61FB71F80930E0190930F0143
:10365000A0931001B0931101181619061A061B0643
:1036600064F520916B06216020936B064091120156
:10367000509113016091140170911501841B950BF9
:10368000A60BB70B80930E0190930F01A09310012E
:10369000B093110180916D0190916E01A0916F0125
:1036A000B09170010197A109B10980936D019093C8
:1036B0006E01A0936F01B0937001809116019091FB
:1036C0001701A0911801B09119010196A11DB11D1A
:1036D0008093160190931701A0931801B0931901DC
:1036E0004D855E856F85788984179507A607B7078E
:1036F00008F00DC120916301243029F50E94301893
:10370000882309F416C18091220190912301A09190
:103710002401B09125010BA51CA52DA53EA50817D8
:1037200019072A073B0740F00E943A19809164016B
:10373000846080936401FDC0BC01CD01601B710BEE
:10374000820B930BDBC04FA558A969A97AA98417EE
:103750009507A607B707C8F50E943018882309F413
:10376000E8C04091220150912301609124017091A1
:1037700025018BA59CA5ADA5BEA5840F951FA61FF1
:10378000B71F8093220190932301A0932401B0934B
:1037900025014FA958AD69AD7AAD84179507A607E5
:1037A000B70740F040932201509323016093240116
:1037B0007093250160912201709123018091240171
:1037C000909125010E94670CB4C04BA95CA96DA91A
:1037D0007EA984179507A607B70708F47EC084174B
:1037E0009507A607B70779F540912201509123016B
:1037F00060912401709125018FA998ADA9ADBAAD52
:10380000481759076A077B0729F480E091E7A2E08F
:10381000B0E010C040911E0150911F016091200145
:103820007091210180E092EEA4E0B0E0841B950B42
:10383000A60BB70B80931E0190931F01A09320014C
:10384000B093210176C00E943018882309F471C01A
:103850008091220190912301A0912401B091250132
:103860004091260150912701609128017091290112
:10387000481759076A077B0748F44BA55CA56DA557
:103880007EA5841B950BA60BB70B04C0B695A79518
:10389000979587958093220190932301A09324010B
:1038A000B09325018FA198A5A9A5BAA540912201A1
:1038B0005091230160912401709125014817590707
:1038C0006A077B0708F076CF80932201909323014B
:1038D000A0932401B09325016DCF6FA978AD89AD78
:1038E0009AAD009122011091230120912401309181
:1038F00025010617170728073907D9F06093220119
:103900007093230180932401909325015BCF109243
:10391000260610922506909124068091230698177A
:1039200041F0809123068F5F823109F480E080931B
:10393000230690916B0680914201892780936B0644
:1039400010922706FF91EF91DF91CF91BF91AF9138
:103950009F918F917F916F915F914F913F912F91A7
:103960001F910F910F900FBE0F901F90189580918F
:103970004F0182FF02C02D9A01C02D9880916301F2
:10398000833081F48091420180936B0680913901EC
:10399000880F8450819580936A0680916F008260C1
:1039A00080936F0008952898089565E080E090E086
:1039B0000E94952B46E350E06CE271E081E090E0DC
:1039C0000C948505882309F45EC080E090E0AAEAA3
:1039D000B3E480932C0190932D01A0932E01B0931A
:1039E0002F018093300190933101A0933201B09365
:1039F000330180E090E0A8E4B3E480933401909335
:103A00003501A0933601B09337018AE080933901E4
:103A100080E090E0A6E1B3E480933A0190933B010B
:103A2000A0933C01B0933D0180933E0190933F01F0
:103A3000A0934001B093410180E090EAACE0B7E48C
:103A40008093470190934801A0934901B0934A01A4
:103A50008DEC9CECACECBDE380934301909344016E
:103A6000A0934501B093460181E8809342018DEC1B
:103A70009CECACE4BDE380934B0190934C01A0938C
:103A80004D01B0934E0182E080934F01109250019E
:103A900080E090E0A8ECB1E4809351019093520152
:103AA000A0935301B093540180E090E0AAE7B3E4FF
:103AB0008093550190935601A0935701B0935801FC
:103AC00084E690E090935A018093590180E090E061
:103AD000A0E8BFE380935B0190935C01A0935D013C
:103AE000B0935E0189E180935F0193E09093600160
:103AF000809361010C94D51C2DE0829FC00111249C
:103B00004CE050E09E5F0C9485051F93CF93DF93AC
:103B1000182FEB018DE0189FB00111247E5F4CE05F
:103B200050E0CE010E944005892B59F48CE0FE0143
:103B300011928A95E9F7BE01812F0E947C1D80E0D9
:103B400001C081E0DF91CF911F9108951F920F92E4
:103B50000FB60F9211242F933F934F935F936F9360
:103B60007F938F939F93AF93BF93EF93FF93809136
:103B7000C600813291F028F48831A9F40E945A2AB3
:103B800023C08F3331F08E3771F4809164018260ED
:103B900007C080916401816003C0809164018860E6
:103BA0008093640111C0E091FC0191E09E0F903878
:103BB00009F490E02091FB01921731F0F0E0E55814
:103BC000FE4F80839093FC01FF91EF91BF91AF91E5
:103BD0009F918F917F916F915F914F913F912F9125
:103BE0000F900FBE0F901F9018951F920F920FB657
:103BF0000F9211248F939F93EF93FF938091690607
:103C0000E82FF0E0E75DF94F90819093C6008F5F59
:103C1000803409F480E08093690690912806891326
:103C200005C08091C1008F7D8093C100FF91EF910D
:103C30009F918F910F900FBE0F901F901895E0915C
:103C4000280691E09E0F903409F490E020916906D7
:103C5000291305C02091640124FFF8CF0895F0E0F6
:103C6000E75DF94F8083909328068091C1008062C0
:103C70008093C1000895CF93C82F80E595E00E94FE
:103C8000A0238C2F90E0FC013197EC30F10548F532
:103C9000E059FF4F0C94CD308EE395E020C086E2D2
:103CA00095E01DC080E195E01AC081E095E017C065
:103CB0008BEE94E014C089ED94E011C088EC94E0A0
:103CC0000EC08CEB94E00BC08DEA94E008C08CE849
:103CD00094E005C08DE794E002C082E794E00E9482
:103CE000A0238FE694E0CF910C94A023CF93DF9391
:103CF0008BE694E00E94A023CCE2D1E06881798138
:103D00008A819B810E94822288E594E00E94A02300
:103D10006C817D818E819F810E94822285E494E066
:103D20000E94A0236A897B898C899D890E948222B6
:103D300087E294E00E94A0236BA165FB662760F9EF
:103D400070E080E090E00E942C238BE094E0DF9113
:103D5000CF910C94A0233F924F925F926F927F92EB
:103D60008F929F92AF92BF92CF92DF92EF92FF928B
:103D70000F931F93CF93DF93CDB7DEB768970FB63E
:103D8000F894DEBF0FBECDBF80916401882309F493
:103D9000B5C130906401832D8076F1F186E0809387
:103DA000630183E094E036FE24C00E94A02388EFE4
:103DB00093E00E94A0238BED93E00E94A02384EF68
:103DC00091E00E94152689ED93E00E94A02387ECE4
:103DD00093E00E94A0238CE893E00E94A0238091AE
:103DE00064018F7E809364018091640184FFFCCF25
:103DF0000EC00E94A02385EE93E00E94A0238BEDCD
:103E000093E00E94A02384EF91E00E941526809108
:103E100064018F798093640134FE04C081E0809353
:103E200062016CC130FEC9C08CE0E5E6F1E0DE0164
:103E30001D9601900D928A95E1F7E09163018E2F16
:103E400090E088309105D8F4FC01E458FF4F0C94C1
:103E5000CD3086E893E011C08FE793E00EC08AE78B
:103E600093E00BC084E793E008C08EE693E005C0C2
:103E700087E693E002C080E693E00E94A02389E5F4
:103E800093E00E94A0236E018DE0C80ED11C9CE23D
:103E9000A92E91E0B92E8E010F5F1F4F4E01E9E16F
:103EA0008E0E911C7801F601619171918191919131
:103EB0006F01F50141905190619071905F010E94F6
:103EC0004D2DA30192010E94A32C3701F7016083BD
:103ED00071838283938320914F0120FF0BC02BE8D5
:103EE00032E441E25DE30E94A22FF7016083718317
:103EF00082839383F4E0EF0EF11CF3016081718102
:103F0000828193810E94822287E593E00E94A02310
:103F1000C814D90441F681E593E00E94A02389E802
:103F2000E82E86E0F82ED12C80914F01F70121A5D3
:103F300032A543A554A580FF0DC0658D768D878D74
:103F400090A10E94A42B2BE832E441E25DE30E94A1
:103F5000A22F06C0658D768D878D90A10E94A42B1F
:103F60009B01AC01F80160817181828193810E9483
:103F7000A32BF8016083718382839383F80161919D
:103F80007191819191918F010E948222F2E0DF165E
:103F900021F08FE493E00E94A023D39484E0E80E04
:103FA000F11CE3E0DE12C0CF8BE493E00E94A0237B
:103FB000809164018E7F8093640133FE0EC08091F6
:103FC0006301833029F484E08093630110927101CE
:103FD00080916401877F8093640132FE7FC0E0910D
:103FE0002506F0912606309709F471C0C584D68461
:103FF000E784F0888091160190911701A091180133
:10400000B0911901C81AD90AEA0AFB0A00912306DD
:10401000FBE30F9F8001112403501E4FC701B6011F
:104020000E944D2DF801258D368D478D50A10E949F
:10403000A22F4B015C01F801658576858785908903
:104040000E944D2D9B01AC01C501B4010E94A32C1F
:10405000F801658F768F878F90A3C586D686E78611
:10406000F08A158A168A178A108E118E128E138E78
:10407000148E12A281E081A30E94C9240E9486248A
:104080000E94FC231092220110922301109224011D
:104090001092250160E070E0CB010E94670C80E087
:1040A00091E7A2E0B0E080931E0190931F01A093DE
:1040B0002001B09321011092160110921701109265
:1040C00018011092190182E08093630102C01092DE
:1040D0006301809164018B7F8093640131FE0EC087
:1040E0000E945D0C80914F0181FF03C081E08093AD
:1040F0007101809164018D7F8093640168960FB691
:10410000F894DEBF0FBECDBFDF91CF911F910F910D
:10411000FF90EF90DF90CF90BF90AF909F908F90E7
:104120007F906F905F904F903F9008951F920F92F5
:104130000FB60F9211242F933F934F935F936F937A
:104140007F938F939F93AF93BF93EF93FF931999AF
:1041500012C0199903C00E945A2A0DC0199904C0AF
:1041600080916401886005C0199905C0809164013F
:10417000826080936401FF91EF91BF91AF919F9115
:104180008F917F916F915F914F913F912F910F9000
:104190000FBE0F901F9018954F925F926F927F9273
:1041A000AF92BF92CF92DF92EF92FF920F931F9345
:1041B000CF93DF938C01EB01FC014588568867881B
:1041C000708CAD88BE88CF88D88C9501A601C301BC
:1041D000B2010E94992C87FF42C0A3019201C30142
:1041E000B2010E94A22F2B013C01809147019091C6
:1041F0004801A0914901B0914A01BC01CD019058FC
:104200009B01AC010E94A42BF801258D368D478DB2
:1042100050A10E94A22F9B01AC01C301B2010E94D8
:10422000A32B0E9441307B018C019B01AC01B501A5
:10423000C6010E94992C87FF02C075018601970173
:10424000A801B501C6010E94992C882341F0C7013D
:10425000D8018D8B9E8BAF8BB88F81E089A3DF91C6
:10426000CF911F910F91FF90EF90DF90CF90BF9073
:10427000AF907F906F905F904F9008954F925F92B4
:104280006F927F928F929F92AF92BF92CF92DF9266
:10429000EF92FF920F931F93CF93DF93CDB7DEB7CB
:1042A00062970FB6F894DEBF0FBECDBF9A8B898B95
:1042B0002A013B0148015901FC0167A970AD81AD9C
:1042C00092AD0E944B2D6B017C01A30192010E94D3
:1042D000A22F0E94822C0E941C2D2B013C01E989F7
:1042E000FA8963A374A385A396A3A5019401C701CA
:1042F000B6010E94A22F0E94822C0E941C2D4B010D
:104300005C01E989FA8967A370A781A792A723A511
:1043100034A545A556A5A2E3B0E00E94D3300E9483
:104320004D2D20E030E040E752E40E94A22F0E9491
:10433000152D69837A838B839C830E944D2D6D8319
:104340007E838F839887C301B2010E944B2D2B017E
:104350003C01A7019601C701B6010E94A22F6B0183
:104360007C01A3019201C301B2010E94A22F6987BF
:104370007A878B879C872D813E814F815885CA0122
:10438000B9010E94A42B6D877E878F87988B298522
:104390003A854B855C85C701B6010E94A32B2D850C
:1043A0003E854F8558890E94A32C0E94822C0E9432
:1043B000152D2B013C01C501B4010E944B2D9B0121
:1043C000AC010E94A22F4B015C01A70196010E9443
:1043D000A32B6B017C0169817A818B819C819095F3
:1043E0008095709561957F4F8F4F9F4F0E944D2D07
:1043F0009B01AC010E94A42B9B01AC01C701B6013B
:104400000E94A32C0E94882DE989FA89C584D6844C
:10441000E784F088A7019601241935094609570950
:1044200029833A834B835C830E94152D29813A812D
:104430004B815C81261B370B480B590BDA01C901F4
:1044400057FF3BC0C701B6010E944D2D2D853E850B
:104450004F8558890E94A22F29853A854B855C8516
:104460000E94A32BA50194010E94A42B4B015C0187
:1044700020E030E040E850E46D817E818F819885B6
:104480000E94A22F9B01AC01C501B4010E94A32C84
:104490000E94822C0E94152D97FF03C060E070E0FF
:1044A000CB01260137016C157D058E059F0514F49F
:1044B0002B013C0180E090E0DC01E989FA8947A604
:1044C00050AA61AA72AA480E591E6A1E7B1E43AAF0
:1044D00054AA65AA76AA62960FB6F894DEBF0FBEFC
:1044E000CDBFDF91CF911F910F91FF90EF90DF90A3
:1044F000CF90BF90AF909F908F907F906F905F9084
:104500004F9008958F929F92AF92BF92CF92DF9279
:10451000EF92FF920F931F93CF93DF93CDB7DEB748
:104520002A970FB6F894DEBF0FBECDBF6B017C019A
:1045300020E030E0A9010E94992C87FF07C08DE29E
:104540000E941F1EF7FAF094F7F8F09400916001B2
:10455000102F123060F020E030E048EC52E4C70148
:10456000B6010E94A22F6B017C011250F2CF00FF16
:104570000AC020E030E040E251E4C701B6010E94E9
:10458000A22F6B017C0120E030E040E05FE3C70137
:10459000B6010E94A42B0E94152DE1E0F0E0EC0F83
:1045A000FD1FE00FF11D2EE2208310E03AE0832E84
:1045B000912CA12CB12C611571058105910511F487
:1045C00080E315C0101301C01F5FEE24E394F12CAB
:1045D000EC0EFD1EE10EF11CA50194010E94AB3012
:1045E000605DF7016083B901CA011F5FE4CF101756
:1045F00048F4E1E0F0E0EC0FFD1FE10FF11D8083D6
:104600001F5FF5CF10130BC081E0810FE1E0F0E0F8
:10461000EC0FFD1FE80FF11D1E5F80E38083112367
:1046200041F0FE01E10FF11D80810E941F1E11501B
:10463000F6CF2A960FB6F894DEBF0FBECDBFDF913E
:10464000CF911F910F91FF90EF90DF90CF90BF908F
:10465000AF909F908F9008958F929F92AF92BF924C
:10466000CF92DF92EF92FF92CF93DF93CDB7DEB779
:104670002A970FB6F894DEBF0FBECDBF6B017C0149
:1046800097FF0BC08DE20E941F1EF094E094D0941F
:10469000C094C11CD11CE11CF11CC701B601CD287E
:1046A000CE28CF2899F480E32A960FB6F894DEBF7F
:1046B0000FBECDBFDF91CF91FF90EF90DF90CF90F5
:1046C000BF90AF909F908F900C941F1E20E04AE007
:1046D000842E912CA12CB12CFF24F394F20ECC2427
:1046E000C394D12CCC0EDD1EC20ED11CA5019401A9
:1046F0000E94AB30605DF6016083B901CA012F2DC5
:10470000611571058105910539F7FF2041F0FE0122
:10471000EF0DF11D80810E941F1EFA94F6CF2A969C
:104720000FB6F894DEBF0FBECDBFDF91CF91FF90E3
:10473000EF90DF90CF90BF90AF909F908F900895B3
:10474000CF93DF93FC018491EF012196882321F020
:104750000E941F1EFE01F7CFDF91CF9108950F93A6
:104760001F93CF93C0E08C2F0E94EF0B811102C0EA
:104770008AE01CC08091BE068823D1F00EEB16E0C3
:10478000F80181918F01882319F00E941F1EF8CF34
:1047900080916301863049F00E94C40C811106C0EB
:1047A00088E595E00E94A02303C08CE00E943B1E98
:1047B000CF5FC230C1F6CF911F910F910895CF9373
:1047C000CBE39091240680912306981749F08091BD
:1047D0002306C89FC001112483509E4F892B21F4CA
:1047E00080916301833031F40E94AB1E809162019D
:1047F000882339F3CF9108954F925F926F927F9201
:104800008F929F92AF92BF92CF92DF92EF92FF92E0
:104810000F931F93CF93DF93F0902306C0E0D0E077
:104820008BE3E82E80912406F81609F441C08F2D01
:1048300090E0E89E9001E99E300D1124A9014350BB
:104840005E4F6A01209761F129A1211104C0FA018C
:1048500021A1222329F189889A88AB88BC88E89E07
:10486000F001E99EF00D1124E350FE4FA5019401E3
:10487000658976898789908D0E94A32C2B013C0144
:10488000A50194016D897E898F89988D0E94A32C42
:10489000AB01BC0193018201CE010E943E2119A20D
:1048A000F394F2E1FF1611F0E601BCCFF12CFCCF3E
:1048B000C988DA88EB88FC88A701960160E070E07F
:1048C000CB010E94A32C4B015C01A70196016D89CD
:1048D0007E898F89988D0E94A32CAB01BC01950124
:1048E0008401CE010E943E2119A2DF91CF911F9138
:1048F0000F91FF90EF90DF90CF90BF90AF909F907F
:104900008F907F906F905F904F900895EF92FF92FD
:104910000F931F93CF93DF93C091230610E0D0E055
:1049200080E090E00BE320912406C217D9F00C9FA1
:1049300090011124A90143505E4F7A01009741F084
:10494000FC0122A1211104C0612F7D2F0E94CC20E7
:10495000CF5FC23129F0812F9D2F1E2DDF2DE3CF98
:10496000C0E0F9CF009771F0FC0122A121110AC02B
:10497000612F7D2FDF91CF911F910F91FF90EF90CD
:104980000C94CC20DF91CF911F910F91FF90EF906D
:1049900008952F923F924F925F926F927F928F92E3
:1049A0009F92AF92BF92CF92DF92EF92FF920F93BE
:1049B0001F93CF93DF9310912406409047015090AE
:1049C00048016090490170904A0177FA709477F835
:1049D0007094A12CB12CC0E0D0E08BE3C82E809164
:1049E0002306181709F46CC0111101C012E111500F
:1049F000C19EC00111249C0123503E4F19012097F4
:104A000019F45E01E101EBCFA114B104D1F3D98C0B
:104A1000EA8CFB8C0C8D2D2D3E2D4F2D502F6D894A
:104A20007E898F89988D0E94992C882351F38AA1C1
:104A300081113BC0F50185889688A788B08CA501B7
:104A400094016D2D7E2D8F2D902F0E94BB2E181658
:104A500064F5A5019401C501B4010E94A22F4B0188
:104A60005C01A3019201C301B2010E94A42B2D8D10
:104A70003E8D4F8D58A10E94A22F9B01AC01C50114
:104A8000B4010E94A32B0E9441304B015C019B01A9
:104A9000AC016D2D7E2D8F2D902F0E94992C87FDBE
:104AA00004C0D82CE92CFA2C0B2D8D2D9E2DAF2D6A
:104AB000B02F8D8B9E8BAF8BB88FF1E0F9A3A1CF78
:104AC000DF91CF911F910F91FF90EF90DF90CF90EA
:104AD000BF90AF909F908F907F906F905F904F901E
:104AE0003F902F9008958F929F92AF92BF92CF9256
:104AF000DF92EF92FF920F931F93CF93DF93E2E643
:104B0000F1E0C384D484E584F68487809084A18412
:104B1000B2846381748185819681EDE6F6E06083DD
:104B200071838283938384829582A682B782C086B2
:104B3000D186E286F386C9E8D6E00E944D2D0CE2CC
:104B400011E0F80120813181428153810E94A32C20
:104B50006C877D878E879F87C501B4010E944D2D8C
:104B6000F80124813581468157810E94A32C688BEE
:104B7000798B8A8B9B8BC701B6010E944D2DF80162
:104B800020853185428553850E94A32C6C8B7D8BBB
:104B90008E8B9F8BDF91CF911F910F91FF90EF90A4
:104BA000DF90CF90BF90AF909F908F900895611548
:104BB000710581059105C1F16A3071058105910585
:104BC00048F425E02A95F1F7000061507109810948
:104BD0009109EDCF643671058105910548F4E5E34F
:104BE000EA95F1F700006A50710981099109DFCF58
:104BF000683EF3E07F078105910558F4EFE8F1E0A6
:104C00003197F1F700C000006456710981099109DC
:104C1000CECFEFE9FFE03197F1F700C00000685E0A
:104C2000734081099109C3CF0895009741F0EFE9DE
:104C3000FFE03197F1F700C000000197F6CF08952B
:104C40002F923F924F925F926F927F928F929F929C
:104C5000AF92BF92CF92DF92EF92FF920F931F938A
:104C6000CF93DF93CDB7DEB7E1970FB6F894DEBFF1
:104C70000FBECDBF2B013C0129833A834B835C835C
:104C8000ED8AFE8A0F8B188FA98ABA8ACB8ADC8AB2
:104C900089A280916301873009F4F3C30E94AB1E9F
:104CA000809162018111EDC38091230620916C06F1
:104CB00029AB821799F380912406282E312C40913C
:104CC0002C0150912D0160912E0170912F014D8387
:104CD0005E836F8378879A01AB01C301B2010E94A2
:104CE000A22F0E946F2F6DA37EA38FA398A7609120
:104CF00030017091310180913201909133016987C7
:104D00007A878B879C879B01AC0169817A818B8133
:104D10009C810E94A22F0E946F2F69A77AA78BA760
:104D20009CA78091340190913501A0913601B091FA
:104D300037018D879E87AF87B88B9C01AD016D8948
:104D40007E898F89988D0E94A22F0E946F2F6DA758
:104D50007EA78FA798AB8BE3829DF001839DF00D1A
:104D60001124E350FE4F108280916D0690916E06E3
:104D7000A0916F06B09170062DA13EA14FA158A53C
:104D8000281739074A075B0714F420E420830091B1
:104D9000710610917206209173063091740649A530
:104DA0005AA56BA57CA540175107620773075CF4F1
:104DB0004BE3429DF001439DF00D1124E350FE4F63
:104DC000408140684083C0907506D0907606E090A0
:104DD0007706F09078064DA55EA56FA578A94C15CD
:104DE0005D056E057F055CF44BE3429DF001439D3C
:104DF000F00D1124E350FE4F4081416040834DA1EE
:104E00005EA16FA178A5481B590B6A0B7B0B4983E8
:104E10005A836B837C8377FF0BC088279927DC013B
:104E2000841B950BA60BB70B89839A83AB83BC833A
:104E3000EBE3E29DC001E39D900D1124FC01E350E2
:104E4000FE4F89819A81AB81BC8181839283A38348
:104E5000B48389A49AA4ABA4BCA4801A910AA20A20
:104E6000B30A95018401B7FE07C0002711279801F6
:104E7000081919092A093B09EBE3E29DC001E39DEA
:104E8000900D1124FC01E350FE4F05831683278308
:104E900030878DA59EA5AFA5B8A98C199D09AE092F
:104EA000BF096C017D012C013D01B7FF07C04424FF
:104EB00055243201481A590A6A0A7B0AEBE3E29D3B
:104EC000C001E39D900D1124FC01E350FE4F41868B
:104ED00052866386748689819A81AB81BC818017F2
:104EE0009107A207B30710F4D901C80189839A83F7
:104EF000AB83BC8384159505A605B70520F44982CC
:104F00005A826B827C828BE3829D8001839D100D8F
:104F1000112403501E4F89819A81AB81BC81F80115
:104F200085879687A787B08B892B8A2B8B2B09F4D3
:104F300023C2CB01BA010E944D2D2D813E814F81AC
:104F400058850E94A32C698F7A8F8B8F9C8FC50107
:104F5000B4010E944D2D29853A854B855C850E94C0
:104F6000A32C6D8F7E8F8F8F98A3C701B6010E94EF
:104F70004D2D2D853E854F8558890E94A32C4B01D0
:104F80005C01298D3A8D4B8D5C8DCA01B9010E945F
:104F9000A22F6B017C012D8D3E8D4F8D58A1CA0132
:104FA000B9010E94A22F9B01AC01C701B6010E946A
:104FB000A42B6B017C01A5019401C501B4010E94E1
:104FC000A22F9B01AC01C701B6010E94A42B0E9435
:104FD00041306D8B7E8B8F8B988FD8015D966D9352
:104FE0007D938D939C9390979B01AC0160E070E062
:104FF00080E89FE30E94A32C2B013C01B9A1B111D1
:1050000009C09B01AC0169897A898B899C890E94BE
:10501000A22F0AC029893A894B895C8960E070E037
:1050200080E89FE30E94A32C6B017C019B01AC01F3
:105030006D897E898F89988D0E94A22F6D837987D3
:105040008D87998B8BE3829D8001839D100D1124A8
:1050500003501E4FCB01AD85B989F801818B928B2E
:10506000A38BB48B69817A818B819C810E944D2DA9
:1050700069A37AA38BA39CA39B01AC01C701B601D2
:105080000E94A22F0E94822C0E941C2DD801D7962C
:105090006D937D938D939C93DA9720914701309186
:1050A00048014091490150914A0129833A834B8339
:1050B0005C8329A13AA14BA15CA1C301B2010E946A
:1050C000A22F29813A814B815C810E94A22F20E08E
:1050D00030E84BE355E40E94A32C0E94822C0E94EE
:1050E000152DD8019B966D937D938D939C939E97E0
:1050F000A3019201698D7A8D8B8D9C8D0E94A22FC8
:10510000698F7A8F8B8F9C8FA30192016D8D7E8D1D
:105110008F8D98A10E94A22F6D8F7E8F8F8F98A365
:10512000A3019201C501B4010E94A22F2B013C01F1
:105130009091240680912306981709F457C0E090B7
:105140008506F0908606009187061091880620E07B
:1051500030E0A901B701C8010E94BB2E18160CF05F
:1051600045C08091790690917A06A0917B06B09116
:105170007C06BC01CD019058298D3A8D4B8D5C8DFC
:105180000E94A22F4B015C0120917D0630917E068A
:1051900040917F06509180066D8D7E8D8F8D98A1F8
:1051A0000E94A22F9B01AC01C501B4010E94A32B58
:1051B0004B015C012091810630918206409183066B
:1051C00050918406C301B2010E94A22F9B01AC0141
:1051D000C501B4010E94A32B4B015C0123E333E31F
:1051E00043E75FE30E94992C87FDECC0E12CF12C92
:1051F00000E010E08BE3829DF001839DF00D11240F
:10520000E350FE4FC701D801818F928FA38FB48FD7
:1052100069817A818B819C8190589B01AC010E94AD
:10522000A42B2D893E894F89588D0E94A22F9B0166
:10523000AC0160E070E0CB010E94A32B0E944130E2
:105240005B016C019B01AC01B701C8010E94992C64
:1052500087FD04C075013C2D2D2D02C0302F212F5C
:105260008BE3829D8001839D100D112403501E4FFE
:10527000C701A32FB22FF801858B968BA78BB08F18
:105280009501A6016D8179858D8599890E94992C5A
:1052900018162CF081E0D80192968C9302C0F80188
:1052A00012A28BE3829DF001839DF00D1124E35047
:1052B000FE4F81E081A3298D3A8D4B8D5C8D20932B
:1052C000790630937A0640937B0650937C064D8D89
:1052D0005E8D6F8D78A140937D0650937E0660931E
:1052E0007F067093800640928106509282066092FB
:1052F0008306709284068D819985AD85B9898093E6
:10530000850690938606A0938706B093880659A9D0
:1053100050932406809124068F5F823109F480E047
:1053200080936C066DA17EA18FA198A560936D06F8
:1053300070936E0680936F069093700689A59AA568
:10534000ABA5BCA58093710690937206A0937306DB
:10535000B09374062DA53EA54FA558A920937506B8
:105360003093760640937706509378060E94C924BE
:105370000E9486240E94FC2380916301811103C056
:1053800082E08093630180917101882309F479C0E0
:10539000E1960FB6F894DEBF0FBECDBFDF91CF917F
:1053A0001F910F91FF90EF90DF90CF90BF90AF9043
:1053B0009F908F907F906F905F904F903F902F9035
:1053C0000C945D0C9701A8016D8179858D85998973
:1053D0000E94BB2E181624F0ED80F9840D851989E2
:1053E00023E333E343E75FEBC501B4010E94BB2E27
:1053F00018160CF0FFCEA501940160E070E080E883
:105400009FE30E94A32B20E030E040E05FE30E9496
:10541000A22F0E9441304B015C0120914B01309141
:105420004C0140914D0150914E0169817A818B81EF
:105430009C810E94A22FA50194010E94A22F69A322
:105440007AA38BA39CA3A501940160E070E080E89F
:105450009FE30E94A32B9B01AC0169A17AA18BA1C0
:105460009CA10E94A32C0E9441305B016C0197011A
:10547000A8010E94BB2E18160CF4BCCE7501860143
:10548000B9CEE1960FB6F894DEBF0FBECDBFDF9167
:10549000CF911F910F91FF90EF90DF90CF90BF9031
:1054A000AF909F908F907F906F905F904F903F90C4
:1054B0002F9008958091640184FD15C0809164014E
:1054C0008061809364010E94D31C0E94D31C809150
:1054D00063018350833038F480916401806280934B
:1054E00064010C943A1908958F929F92AF92BF92E3
:1054F000CF92DF92EF92FF920F931F93CF93DF93A0
:105500007C016B01DC01CC91D0E0FE01E254F94F4B
:1055100080818D3229F4EF012296818101E009C05A
:105520008B3219F0C154D94F03C0EF01229681810B
:1055300000E0912CF0E010E020E030E0A9015E01F5
:10554000E0EDE80FEA30D0F4FF5FF93098F4911005
:105550001150A5E0B0E00E94D330DC01CB01880FF0
:10556000991FAA1FBB1F9C01AD012E0F311D411DAC
:10557000511D0AC0911008C01F5F06C0EE3F41F4E4
:10558000911006C0992493942196D5018C91D7CF80
:10559000FF2309F450C0CA01B9010E944B2D4B01F1
:1055A0005C0120E030E0A9010E94992C882349F198
:1055B0001F3F64F42AE037ED43E25CE3C501B40128
:1055C0000E94A22F4B015C011E5FF2CF1F3F59F4D6
:1055D0002DEC3CEC4CEC5DE3C501B4010E94A22F24
:1055E0004B015C010EC0112361F020E030E040E28D
:1055F00051E4C501B4010E94A22F4B015C0111507E
:10560000F2CF002351F0B7FAB094B7F8B094F60196
:1056100080829182A282B38206C0D6018D929D9231
:10562000AD92BC921397CE5BD640C150F701C083B8
:1056300081E090E002C080E090E0DF91CF911F9187
:105640000F91FF90EF90DF90CF90BF90AF909F9021
:105650008F900895CF93DF93DC01EA01E881F0E0B9
:10566000E254F94F90819923A1F09C9391549A317F
:1056700020F082E0809389060CC0CA0128812F5F48
:1056800028830E94742A009739F421E02093890628
:1056900005C080E090E002C081E090E0DF91CF9112
:1056A0000895789484B5826084BD84B5816084BD9A
:1056B00085B5826085BD85B5816085BDEEE6F0E08B
:1056C000808181608083E1E8F0E0108280818260E7
:1056D0008083808181608083E0E8F0E08081816068
:1056E0008083E1EBF0E0808184608083E0EBF0E098
:1056F000808181608083EAE7F0E08081846080833C
:1057000080818260808380818160808380818068E5
:1057100080831092C1000E94C105F999FECF92BD0D
:1057200081BDF89A992780B50895262FF999FECF63
:105730001FBA92BD81BD20BD0FB6F894FA9AF99AAE
:105740000FBE019608955058BB27AA270E94BB2B75
:105750000C94552E0E941C2E38F00E94232E20F00F
:1057600039F49F3F19F426F40C94F22D0EF4E095D1
:10577000E7FB0C94C32DE92F0E947A2E58F3BA1739
:10578000620773078407950720F079F4A6F50C9457
:10579000B42E0EF4E0950B2EBA2FA02D0B01B901FB
:1057A00090010C01CA01A0011124FF27591B99F097
:1057B000593F50F4503E68F11A16F040A22F232FA3
:1057C000342F4427585FF3CF469537952795A795F3
:1057D000F0405395C9F77EF41F16BA0B620B730B9A
:1057E000840BBAF09150A1F0FF0FBB1F661F771F0B
:1057F000881FC2F70EC0BA0F621F731F841F48F4C0
:10580000879577956795B795F7959E3F08F0B0CF48
:105810009395880F08F09927EE0F9795879508952F
:105820000E941C2E60F080E891E009F49EEF0E9437
:10583000232E28F040E851E071F45EEF0CC00C9488
:10584000F22D0C94B42EE92FE0780E947A2E40F3CA
:10585000092E052AB1F3261737074807590738F0EC
:105860000E2E07F8E02569F0E025E0640AC0EF633A
:1058700007F8009407FADB01B9019D01DC01CA01B8
:10588000AD01EF930E94BA2C0E94552E0E94532C1A
:105890005F91552339F02BED3FE049E450FD49EC91
:1058A0000C94A42B0895DF93DD27B92FBF7740E830
:1058B0005FE31616170648075B0718F4D92F0E94F6
:1058C0002D2F9F938F937F936F930E948130E8E0F9
:1058D000F1E00E94F52D0E94552E2F913F914F919E
:1058E0005F910E94B52FDD2351F09058A2EA2AED76
:1058F0003FE049EC5FE3D0785D270E94BB2BDF914E
:105900000C94552E0E949C2E90F09F3748F49111D4
:1059100016F40C94B52E60E070E080E89FE30895E3
:1059200026F01B16611D711D811D0C94C92D0C9450
:10593000E42D0E949F2D08F481E008950E942C2EF2
:10594000E3950C94662E0E94B72C0C94552E0E9461
:10595000232E58F00E941C2E40F029F45F3F29F0BE
:105960000C94C32D51110C94B52E0C94F22D0E9461
:105970007A2E68F39923B1F3552391F3951B550BB8
:10598000BB27AA2762177307840738F09F5F5F4F12
:10599000220F331F441FAA1FA9F335D00E2E3AF051
:1059A000E0E832D091505040E695001CCAF72BD069
:1059B000FE2F29D0660F771F881FBB1F26173707BA
:1059C0004807AB07B0E809F0BB0B802DBF01FF27EC
:1059D00093585F4F3AF09E3F510578F00C94C32DD9
:1059E0000C94B52E5F3FE4F3983ED4F386957795FB
:1059F0006795B795F7959F5FC9F7880F911D9695A5
:105A0000879597F90895E1E0660F771F881FBB1F00
:105A1000621773078407BA0720F0621B730B840BAD
:105A2000BA0BEE1F88F7E09508950E941C2D68942C
:105A3000B1110C94B52E08950E94822E88F09F57C4
:105A400098F0B92F9927B751B0F0E1F0660F771FA2
:105A5000881F991F1AF0BA95C9F714C0B13091F098
:105A60000E94B42EB1E008950C94B42E672F782FC5
:105A70008827B85F39F0B93FCCF38695779567955D
:105A8000B395D9F73EF490958095709561957F4FC9
:105A90008F4F9F4F0895E89409C097FB3EF490956F
:105AA0008095709561957F4F8F4F9F4F9923A9F0F7
:105AB000F92F96E9BB279395F69587957795679586
:105AC000B795F111F8CFFAF4BB0F11F460FF1BC0CA
:105AD0006F5F7F4F8F4F9F4F16C0882311F096E95D
